{"abi":[{"type":"constructor","inputs":[{"name":"_mailbox","type":"address","internalType":"address"},{"name":"_usdc","type":"address","internalType":"address"},{"name":"_wip","type":"address","internalType":"address"},{"name":"_royaltyModule","type":"address","internalType":"address"},{"name":"_licensingModule","type":"address","internalType":"address"},{"name":"_pilTemplate","type":"address","internalType":"address"},{"name":"_ipAssetRegistry","type":"address","internalType":"address"},{"name":"_disputeModule","type":"address","internalType":"address"},{"name":"_licenseToken","type":"address","internalType":"address"},{"name":"_registrationWorkflows","type":"address","internalType":"address"},{"name":"_derivativeWorkflows","type":"address","internalType":"address"},{"name":"_initialRate","type":"uint256","internalType":"uint256"}],"stateMutability":"nonpayable"},{"type":"function","name":"OP_CREATE_COLLECTION","inputs":[],"outputs":[{"name":"","type":"uint8","internalType":"uint8"}],"stateMutability":"view"},{"type":"function","name":"OP_CREATE_DERIVATIVE","inputs":[],"outputs":[{"name":"","type":"uint8","internalType":"uint8"}],"stateMutability":"view"},{"type":"function","name":"OP_CREATE_DERIVATIVE_WITH_LICENSE","inputs":[],"outputs":[{"name":"","type":"uint8","internalType":"uint8"}],"stateMutability":"view"},{"type":"function","name":"OP_CREATE_LISTING","inputs":[],"outputs":[{"name":"","type":"uint8","internalType":"uint8"}],"stateMutability":"view"},{"type":"function","name":"OP_DEACTIVATE_LISTING","inputs":[],"outputs":[{"name":"","type":"uint8","internalType":"uint8"}],"stateMutability":"view"},{"type":"function","name":"OP_LIST_LICENSE_TOKEN","inputs":[],"outputs":[{"name":"","type":"uint8","internalType":"uint8"}],"stateMutability":"view"},{"type":"function","name":"OP_MINT_AND_REGISTER_IP","inputs":[],"outputs":[{"name":"","type":"uint8","internalType":"uint8"}],"stateMutability":"view"},{"type":"function","name":"OP_MINT_LICENSE","inputs":[],"outputs":[{"name":"","type":"uint8","internalType":"uint8"}],"stateMutability":"view"},{"type":"function","name":"OP_MINT_LICENSE_WITH_FEE","inputs":[],"outputs":[{"name":"","type":"uint8","internalType":"uint8"}],"stateMutability":"view"},{"type":"function","name":"OP_PURCHASE_LICENSE_LISTING","inputs":[],"outputs":[{"name":"","type":"uint8","internalType":"uint8"}],"stateMutability":"view"},{"type":"function","name":"OP_RAISE_DISPUTE","inputs":[],"outputs":[{"name":"","type":"uint8","internalType":"uint8"}],"stateMutability":"view"},{"type":"function","name":"OP_REGISTER_IP","inputs":[],"outputs":[{"name":"","type":"uint8","internalType":"uint8"}],"stateMutability":"view"},{"type":"function","name":"OP_TRANSFER_LICENSE","inputs":[],"outputs":[{"name":"","type":"uint8","internalType":"uint8"}],"stateMutability":"view"},{"type":"function","name":"OP_UPDATE_LISTING","inputs":[],"outputs":[{"name":"","type":"uint8","internalType":"uint8"}],"stateMutability":"view"},{"type":"function","name":"calculateWIPAmount","inputs":[{"name":"usdcAmount","type":"uint256","internalType":"uint256"}],"outputs":[{"name":"","type":"uint256","internalType":"uint256"}],"stateMutability":"view"},{"type":"function","name":"checkLiquidity","inputs":[{"name":"usdcAmount","type":"uint256","internalType":"uint256"}],"outputs":[{"name":"hasLiquidity","type":"bool","internalType":"bool"},{"name":"requiredWIP","type":"uint256","internalType":"uint256"}],"stateMutability":"view"},{"type":"function","name":"creatorCollections","inputs":[{"name":"","type":"address","internalType":"address"}],"outputs":[{"name":"","type":"address","internalType":"address"}],"stateMutability":"view"},{"type":"function","name":"depositLicenseToEscrow","inputs":[{"name":"licenseTokenId","type":"uint256","internalType":"uint256"}],"outputs":[],"stateMutability":"nonpayable"},{"type":"function","name":"depositWIP","inputs":[{"name":"amount","type":"uint256","internalType":"uint256"}],"outputs":[],"stateMutability":"nonpayable"},{"type":"function","name":"derivativeWorkflows","inputs":[],"outputs":[{"name":"","type":"address","internalType":"address"}],"stateMutability":"view"},{"type":"function","name":"disputeModule","inputs":[],"outputs":[{"name":"","type":"address","internalType":"address"}],"stateMutability":"view"},{"type":"function","name":"getCreatorCollection","inputs":[{"name":"creator","type":"address","internalType":"address"}],"outputs":[{"name":"","type":"address","internalType":"address"}],"stateMutability":"view"},{"type":"function","name":"getDomainConfig","inputs":[{"name":"domain","type":"uint32","internalType":"uint32"}],"outputs":[{"name":"enabled","type":"bool","internalType":"bool"},{"name":"sender","type":"bytes32","internalType":"bytes32"}],"stateMutability":"view"},{"type":"function","name":"getLicenseListing","inputs":[{"name":"listingId","type":"uint256","internalType":"uint256"}],"outputs":[{"name":"","type":"tuple","internalType":"struct IPayReceiver.LicenseTokenListing","components":[{"name":"listingId","type":"uint256","internalType":"uint256"},{"name":"licenseTokenId","type":"uint256","internalType":"uint256"},{"name":"seller","type":"address","internalType":"address"},{"name":"priceUSDC","type":"uint256","internalType":"uint256"},{"name":"isActive","type":"bool","internalType":"bool"},{"name":"createdAt","type":"uint256","internalType":"uint256"}]}],"stateMutability":"view"},{"type":"function","name":"getLicenseListingsBySeller","inputs":[{"name":"seller","type":"address","internalType":"address"}],"outputs":[{"name":"","type":"uint256[]","internalType":"uint256[]"}],"stateMutability":"view"},{"type":"function","name":"getListing","inputs":[{"name":"listingId","type":"uint256","internalType":"uint256"}],"outputs":[{"name":"","type":"tuple","internalType":"struct IPayReceiver.Listing","components":[{"name":"listingId","type":"uint256","internalType":"uint256"},{"name":"storyIPId","type":"address","internalType":"address"},{"name":"creator","type":"address","internalType":"address"},{"name":"title","type":"string","internalType":"string"},{"name":"description","type":"string","internalType":"string"},{"name":"category","type":"string","internalType":"string"},{"name":"priceUSDC","type":"uint256","internalType":"uint256"},{"name":"assetIpfsHash","type":"string","internalType":"string"},{"name":"metadataUri","type":"string","internalType":"string"},{"name":"sourceChain","type":"uint32","internalType":"uint32"},{"name":"isActive","type":"bool","internalType":"bool"},{"name":"createdAt","type":"uint256","internalType":"uint256"},{"name":"totalUses","type":"uint256","internalType":"uint256"}]}],"stateMutability":"view"},{"type":"function","name":"getListingsByCreator","inputs":[{"name":"creator","type":"address","internalType":"address"}],"outputs":[{"name":"","type":"uint256[]","internalType":"uint256[]"}],"stateMutability":"view"},{"type":"function","name":"getListingsByIPId","inputs":[{"name":"ipId","type":"address","internalType":"address"}],"outputs":[{"name":"","type":"uint256[]","internalType":"uint256[]"}],"stateMutability":"view"},{"type":"function","name":"getPayment","inputs":[{"name":"messageId","type":"bytes32","internalType":"bytes32"}],"outputs":[{"name":"","type":"tuple","internalType":"struct IPayReceiver.PaymentRecord","components":[{"name":"payer","type":"address","internalType":"address"},{"name":"ipId","type":"address","internalType":"address"},{"name":"licenseTermsId","type":"uint256","internalType":"uint256"},{"name":"usdcAmount","type":"uint256","internalType":"uint256"},{"name":"wipAmount","type":"uint256","internalType":"uint256"},{"name":"operationType","type":"uint8","internalType":"uint8"},{"name":"processed","type":"bool","internalType":"bool"},{"name":"timestamp","type":"uint256","internalType":"uint256"}]}],"stateMutability":"view"},{"type":"function","name":"grantMinterRoleToWorkflows","inputs":[],"outputs":[],"stateMutability":"nonpayable"},{"type":"function","name":"handle","inputs":[{"name":"_origin","type":"uint32","internalType":"uint32"},{"name":"_sender","type":"bytes32","internalType":"bytes32"},{"name":"_message","type":"bytes","internalType":"bytes"}],"outputs":[],"stateMutability":"nonpayable"},{"type":"function","name":"ipAssetRegistry","inputs":[],"outputs":[{"name":"","type":"address","internalType":"address"}],"stateMutability":"view"},{"type":"function","name":"isDomainTrusted","inputs":[{"name":"domain","type":"uint32","internalType":"uint32"}],"outputs":[{"name":"","type":"bool","internalType":"bool"}],"stateMutability":"view"},{"type":"function","name":"licenseListings","inputs":[{"name":"","type":"uint256","internalType":"uint256"}],"outputs":[{"name":"listingId","type":"uint256","internalType":"uint256"},{"name":"licenseTokenId","type":"uint256","internalType":"uint256"},{"name":"seller","type":"address","internalType":"address"},{"name":"priceUSDC","type":"uint256","internalType":"uint256"},{"name":"isActive","type":"bool","internalType":"bool"},{"name":"createdAt","type":"uint256","internalType":"uint256"}],"stateMutability":"view"},{"type":"function","name":"licenseListingsBySeller","inputs":[{"name":"","type":"address","internalType":"address"},{"name":"","type":"uint256","internalType":"uint256"}],"outputs":[{"name":"","type":"uint256","internalType":"uint256"}],"stateMutability":"view"},{"type":"function","name":"licenseToken","inputs":[],"outputs":[{"name":"","type":"address","internalType":"address"}],"stateMutability":"view"},{"type":"function","name":"licensingModule","inputs":[],"outputs":[{"name":"","type":"address","internalType":"address"}],"stateMutability":"view"},{"type":"function","name":"listings","inputs":[{"name":"","type":"uint256","internalType":"uint256"}],"outputs":[{"name":"listingId","type":"uint256","internalType":"uint256"},{"name":"storyIPId","type":"address","internalType":"address"},{"name":"creator","type":"address","internalType":"address"},{"name":"title","type":"string","internalType":"string"},{"name":"description","type":"string","internalType":"string"},{"name":"category","type":"string","internalType":"string"},{"name":"priceUSDC","type":"uint256","internalType":"uint256"},{"name":"assetIpfsHash","type":"string","internalType":"string"},{"name":"metadataUri","type":"string","internalType":"string"},{"name":"sourceChain","type":"uint32","internalType":"uint32"},{"name":"isActive","type":"bool","internalType":"bool"},{"name":"createdAt","type":"uint256","internalType":"uint256"},{"name":"totalUses","type":"uint256","internalType":"uint256"}],"stateMutability":"view"},{"type":"function","name":"listingsByCreator","inputs":[{"name":"","type":"address","internalType":"address"},{"name":"","type":"uint256","internalType":"uint256"}],"outputs":[{"name":"","type":"uint256","internalType":"uint256"}],"stateMutability":"view"},{"type":"function","name":"listingsByIPId","inputs":[{"name":"","type":"address","internalType":"address"},{"name":"","type":"uint256","internalType":"uint256"}],"outputs":[{"name":"","type":"uint256","internalType":"uint256"}],"stateMutability":"view"},{"type":"function","name":"mailbox","inputs":[],"outputs":[{"name":"","type":"address","internalType":"address"}],"stateMutability":"view"},{"type":"function","name":"nextLicenseListingId","inputs":[],"outputs":[{"name":"","type":"uint256","internalType":"uint256"}],"stateMutability":"view"},{"type":"function","name":"nextListingId","inputs":[],"outputs":[{"name":"","type":"uint256","internalType":"uint256"}],"stateMutability":"view"},{"type":"function","name":"owner","inputs":[],"outputs":[{"name":"","type":"address","internalType":"address"}],"stateMutability":"view"},{"type":"function","name":"pause","inputs":[],"outputs":[],"stateMutability":"nonpayable"},{"type":"function","name":"paused","inputs":[],"outputs":[{"name":"","type":"bool","internalType":"bool"}],"stateMutability":"view"},{"type":"function","name":"payments","inputs":[{"name":"","type":"bytes32","internalType":"bytes32"}],"outputs":[{"name":"payer","type":"address","internalType":"address"},{"name":"ipId","type":"address","internalType":"address"},{"name":"licenseTermsId","type":"uint256","internalType":"uint256"},{"name":"usdcAmount","type":"uint256","internalType":"uint256"},{"name":"wipAmount","type":"uint256","internalType":"uint256"},{"name":"operationType","type":"uint8","internalType":"uint8"},{"name":"processed","type":"bool","internalType":"bool"},{"name":"timestamp","type":"uint256","internalType":"uint256"}],"stateMutability":"view"},{"type":"function","name":"pilTemplate","inputs":[],"outputs":[{"name":"","type":"address","internalType":"address"}],"stateMutability":"view"},{"type":"function","name":"registrationWorkflows","inputs":[],"outputs":[{"name":"","type":"address","internalType":"address"}],"stateMutability":"view"},{"type":"function","name":"royaltyModule","inputs":[],"outputs":[{"name":"","type":"address","internalType":"address"}],"stateMutability":"view"},{"type":"function","name":"setExchangeRate","inputs":[{"name":"newRate","type":"uint256","internalType":"uint256"}],"outputs":[],"stateMutability":"nonpayable"},{"type":"function","name":"setSpgNftContract","inputs":[{"name":"_spgNftContract","type":"address","internalType":"address"}],"outputs":[],"stateMutability":"nonpayable"},{"type":"function","name":"setTrustedDomain","inputs":[{"name":"domain","type":"uint32","internalType":"uint32"},{"name":"sender","type":"bytes32","internalType":"bytes32"},{"name":"enabled","type":"bool","internalType":"bool"}],"outputs":[],"stateMutability":"nonpayable"},{"type":"function","name":"setTrustedDomainsBatch","inputs":[{"name":"domains","type":"uint32[]","internalType":"uint32[]"},{"name":"senders","type":"bytes32[]","internalType":"bytes32[]"},{"name":"enabledFlags","type":"bool[]","internalType":"bool[]"}],"outputs":[],"stateMutability":"nonpayable"},{"type":"function","name":"spgNftContract","inputs":[],"outputs":[{"name":"","type":"address","internalType":"address"}],"stateMutability":"view"},{"type":"function","name":"transferOwnership","inputs":[{"name":"newOwner","type":"address","internalType":"address"}],"outputs":[],"stateMutability":"nonpayable"},{"type":"function","name":"trustedDomains","inputs":[{"name":"","type":"uint32","internalType":"uint32"}],"outputs":[{"name":"enabled","type":"bool","internalType":"bool"},{"name":"trustedSender","type":"bytes32","internalType":"bytes32"}],"stateMutability":"view"},{"type":"function","name":"unpause","inputs":[],"outputs":[],"stateMutability":"nonpayable"},{"type":"function","name":"usdc","inputs":[],"outputs":[{"name":"","type":"address","internalType":"contract IERC20"}],"stateMutability":"view"},{"type":"function","name":"usdcToWipRate","inputs":[],"outputs":[{"name":"","type":"uint256","internalType":"uint256"}],"stateMutability":"view"},{"type":"function","name":"wip","inputs":[],"outputs":[{"name":"","type":"address","internalType":"contract IERC20"}],"stateMutability":"view"},{"type":"function","name":"wipLiquidity","inputs":[],"outputs":[{"name":"","type":"uint256","internalType":"uint256"}],"stateMutability":"view"},{"type":"function","name":"withdrawLicenseFromEscrow","inputs":[{"name":"licenseTokenId","type":"uint256","internalType":"uint256"},{"name":"recipient","type":"address","internalType":"address"}],"outputs":[],"stateMutability":"nonpayable"},{"type":"function","name":"withdrawUSDC","inputs":[{"name":"amount","type":"uint256","internalType":"uint256"}],"outputs":[],"stateMutability":"nonpayable"},{"type":"function","name":"withdrawWIP","inputs":[{"name":"amount","type":"uint256","internalType":"uint256"}],"outputs":[],"stateMutability":"nonpayable"},{"type":"event","name":"CollectionCreated","inputs":[{"name":"messageId","type":"bytes32","indexed":true,"internalType":"bytes32"},{"name":"creator","type":"address","indexed":true,"internalType":"address"},{"name":"collection","type":"address","indexed":true,"internalType":"address"}],"anonymous":false},{"type":"event","name":"DerivativeCreated","inputs":[{"name":"messageId","type":"bytes32","indexed":true,"internalType":"bytes32"},{"name":"parentIpId","type":"address","indexed":true,"internalType":"address"},{"name":"derivativeIpId","type":"address","indexed":true,"internalType":"address"},{"name":"wipAmount","type":"uint256","indexed":false,"internalType":"uint256"}],"anonymous":false},{"type":"event","name":"DerivativeCreatedWithLicense","inputs":[{"name":"messageId","type":"bytes32","indexed":true,"internalType":"bytes32"},{"name":"derivativeIpId","type":"address","indexed":true,"internalType":"address"},{"name":"creator","type":"address","indexed":true,"internalType":"address"},{"name":"tokenId","type":"uint256","indexed":false,"internalType":"uint256"}],"anonymous":false},{"type":"event","name":"DisputeRaised","inputs":[{"name":"messageId","type":"bytes32","indexed":true,"internalType":"bytes32"},{"name":"disputeId","type":"uint256","indexed":true,"internalType":"uint256"},{"name":"targetIpId","type":"address","indexed":true,"internalType":"address"},{"name":"disputant","type":"address","indexed":false,"internalType":"address"},{"name":"bondAmount","type":"uint256","indexed":false,"internalType":"uint256"}],"anonymous":false},{"type":"event","name":"ExchangeRateUpdated","inputs":[{"name":"oldRate","type":"uint256","indexed":false,"internalType":"uint256"},{"name":"newRate","type":"uint256","indexed":false,"internalType":"uint256"}],"anonymous":false},{"type":"event","name":"IPMintedAndRegistered","inputs":[{"name":"messageId","type":"bytes32","indexed":true,"internalType":"bytes32"},{"name":"ipId","type":"address","indexed":true,"internalType":"address"},{"name":"creator","type":"address","indexed":true,"internalType":"address"},{"name":"tokenId","type":"uint256","indexed":false,"internalType":"uint256"},{"name":"licenseTermsIds","type":"uint256[]","indexed":false,"internalType":"uint256[]"}],"anonymous":false},{"type":"event","name":"IPRegistered","inputs":[{"name":"messageId","type":"bytes32","indexed":true,"internalType":"bytes32"},{"name":"nftContract","type":"address","indexed":true,"internalType":"address"},{"name":"tokenId","type":"uint256","indexed":true,"internalType":"uint256"},{"name":"ipId","type":"address","indexed":false,"internalType":"address"}],"anonymous":false},{"type":"event","name":"LicenseListingPurchased","inputs":[{"name":"listingId","type":"uint256","indexed":true,"internalType":"uint256"},{"name":"buyer","type":"address","indexed":true,"internalType":"address"},{"name":"paymentAmount","type":"uint256","indexed":false,"internalType":"uint256"}],"anonymous":false},{"type":"event","name":"LicenseMinted","inputs":[{"name":"messageId","type":"bytes32","indexed":true,"internalType":"bytes32"},{"name":"ipId","type":"address","indexed":true,"internalType":"address"},{"name":"recipient","type":"address","indexed":true,"internalType":"address"},{"name":"licenseTokenId","type":"uint256","indexed":false,"internalType":"uint256"},{"name":"wipAmount","type":"uint256","indexed":false,"internalType":"uint256"}],"anonymous":false},{"type":"event","name":"LicenseMintedWithFee","inputs":[{"name":"messageId","type":"bytes32","indexed":true,"internalType":"bytes32"},{"name":"ipId","type":"address","indexed":true,"internalType":"address"},{"name":"recipient","type":"address","indexed":true,"internalType":"address"},{"name":"licenseTokenId","type":"uint256","indexed":false,"internalType":"uint256"},{"name":"mintingFee","type":"uint256","indexed":false,"internalType":"uint256"}],"anonymous":false},{"type":"event","name":"LicenseTokenListed","inputs":[{"name":"listingId","type":"uint256","indexed":true,"internalType":"uint256"},{"name":"licenseTokenId","type":"uint256","indexed":true,"internalType":"uint256"},{"name":"seller","type":"address","indexed":true,"internalType":"address"},{"name":"price","type":"uint256","indexed":false,"internalType":"uint256"}],"anonymous":false},{"type":"event","name":"LicenseTransferred","inputs":[{"name":"messageId","type":"bytes32","indexed":true,"internalType":"bytes32"},{"name":"licenseTokenId","type":"uint256","indexed":true,"internalType":"uint256"},{"name":"from","type":"address","indexed":true,"internalType":"address"},{"name":"to","type":"address","indexed":false,"internalType":"address"}],"anonymous":false},{"type":"event","name":"ListingCreated","inputs":[{"name":"listingId","type":"uint256","indexed":true,"internalType":"uint256"},{"name":"storyIPId","type":"address","indexed":true,"internalType":"address"},{"name":"creator","type":"address","indexed":true,"internalType":"address"},{"name":"priceUSDC","type":"uint256","indexed":false,"internalType":"uint256"},{"name":"sourceChain","type":"uint32","indexed":false,"internalType":"uint32"},{"name":"title","type":"string","indexed":false,"internalType":"string"},{"name":"category","type":"string","indexed":false,"internalType":"string"}],"anonymous":false},{"type":"event","name":"ListingDeactivated","inputs":[{"name":"listingId","type":"uint256","indexed":true,"internalType":"uint256"}],"anonymous":false},{"type":"event","name":"ListingUpdated","inputs":[{"name":"listingId","type":"uint256","indexed":true,"internalType":"uint256"},{"name":"newPrice","type":"uint256","indexed":false,"internalType":"uint256"}],"anonymous":false},{"type":"event","name":"ListingUsed","inputs":[{"name":"listingId","type":"uint256","indexed":true,"internalType":"uint256"},{"name":"user","type":"address","indexed":true,"internalType":"address"},{"name":"paymentAmount","type":"uint256","indexed":false,"internalType":"uint256"}],"anonymous":false},{"type":"event","name":"OwnershipTransferred","inputs":[{"name":"previousOwner","type":"address","indexed":true,"internalType":"address"},{"name":"newOwner","type":"address","indexed":true,"internalType":"address"}],"anonymous":false},{"type":"event","name":"Paused","inputs":[{"name":"by","type":"address","indexed":true,"internalType":"address"}],"anonymous":false},{"type":"event","name":"PaymentFailed","inputs":[{"name":"messageId","type":"bytes32","indexed":true,"internalType":"bytes32"},{"name":"operationType","type":"uint8","indexed":false,"internalType":"uint8"},{"name":"reason","type":"string","indexed":false,"internalType":"string"}],"anonymous":false},{"type":"event","name":"PaymentReceived","inputs":[{"name":"messageId","type":"bytes32","indexed":true,"internalType":"bytes32"},{"name":"payer","type":"address","indexed":true,"internalType":"address"},{"name":"ipId","type":"address","indexed":true,"internalType":"address"},{"name":"usdcAmount","type":"uint256","indexed":false,"internalType":"uint256"},{"name":"wipAmount","type":"uint256","indexed":false,"internalType":"uint256"}],"anonymous":false},{"type":"event","name":"SpgNftContractUpdated","inputs":[{"name":"oldContract","type":"address","indexed":true,"internalType":"address"},{"name":"newContract","type":"address","indexed":true,"internalType":"address"}],"anonymous":false},{"type":"event","name":"TrustedDomainUpdated","inputs":[{"name":"domain","type":"uint32","indexed":true,"internalType":"uint32"},{"name":"sender","type":"bytes32","indexed":false,"internalType":"bytes32"},{"name":"enabled","type":"bool","indexed":false,"internalType":"bool"}],"anonymous":false},{"type":"event","name":"USDCWithdrawn","inputs":[{"name":"recipient","type":"address","indexed":true,"internalType":"address"},{"name":"amount","type":"uint256","indexed":false,"internalType":"uint256"}],"anonymous":false},{"type":"event","name":"Unpaused","inputs":[{"name":"by","type":"address","indexed":true,"internalType":"address"}],"anonymous":false},{"type":"event","name":"WIPDeposited","inputs":[{"name":"depositor","type":"address","indexed":true,"internalType":"address"},{"name":"amount","type":"uint256","indexed":false,"internalType":"uint256"},{"name":"newLiquidity","type":"uint256","indexed":false,"internalType":"uint256"}],"anonymous":false},{"type":"event","name":"WIPWithdrawn","inputs":[{"name":"recipient","type":"address","indexed":true,"internalType":"address"},{"name":"amount","type":"uint256","indexed":false,"internalType":"uint256"},{"name":"newLiquidity","type":"uint256","indexed":false,"internalType":"uint256"}],"anonymous":false},{"type":"error","name":"ArrayLengthMismatch","inputs":[]},{"type":"error","name":"CollectionAlreadyExists","inputs":[]},{"type":"error","name":"ContractPaused","inputs":[]},{"type":"error","name":"InsufficientLiquidity","inputs":[]},{"type":"error","name":"InvalidAmount","inputs":[]},{"type":"error","name":"InvalidOrigin","inputs":[]},{"type":"error","name":"InvalidRate","inputs":[]},{"type":"error","name":"LicenseListingNotActive","inputs":[]},{"type":"error","name":"LicenseListingNotFound","inputs":[]},{"type":"error","name":"LicenseNotInEscrow","inputs":[]},{"type":"error","name":"ListingNotActive","inputs":[]},{"type":"error","name":"ListingNotFound","inputs":[]},{"type":"error","name":"OnlyMailbox","inputs":[]},{"type":"error","name":"OnlyOwner","inputs":[]},{"type":"error","name":"OperationFailed","inputs":[]},{"type":"error","name":"PaymentAlreadyProcessed","inputs":[]},{"type":"error","name":"ReentrancyGuardReentrantCall","inputs":[]},{"type":"error","name":"SafeERC20FailedOperation","inputs":[{"name":"token","type":"address","internalType":"address"}]},{"type":"error","name":"SpgNftContractNotSet","inputs":[]},{"type":"error","name":"UntrustedSender","inputs":[]},{"type":"error","name":"ZeroAddress","inputs":[]}],"bytecode":{"object":"0x6101e034620003c057601f6200539a38819003918201601f19168301916001600160401b03831184841017620003c45780849261018094604052833981010312620003c0576200004f81620003d8565b906200005e60208201620003d8565b906200006d60408201620003d8565b916200007c60608301620003d8565b936200008b60808401620003d8565b946200009a60a08501620003d8565b620000a860c08601620003d8565b620000b660e08701620003d8565b9161010098620000c88a8901620003d8565b9461012099620000da8b8b01620003d8565b98610160620000ed6101408d01620003d8565b9b015160017f9b779b17422d0df92223018b32b4d1fa46e071723d6817e2486d003becc55f0055986001600160a01b038116158015620003ae575b80156200039c575b62000342576001600160a01b0384161580156200038a575b62000342576001600160a01b03861615801562000378575b62000342576001600160a01b03881615801562000366575b62000342576001600160a01b038b1615801562000354575b6200034257891562000330576080526001600160a01b0390811660a0521660c05260e052895287526101405261016052610180526101a09182526101c0928352600355600180546001600160a01b031916331781556005819055600655604051614fac9490939085620003ee863960805185818161096601526114bb015260a0518581816107960152612e06015260c05185818161092101528181610a77015281816111f50152818161380e01528181613fc6015281816144ef0152614a80015260e05185818161142b0152818161451a0152614aa20152518481816112c2015281816137d60152614bed015251838181610b8f01528181613908015281816147550152614ba701526101405183818161166e01528181612e4a0152818161462e015281816146b70152614792015261016051838181610ee10152613f8e015261018051838181610c8a0152818161110c015281816124d1015281816126ef01528181612c2001526141a001525182818161127d015281816113690152818161234f01528181613cb10152613e090152518181816129ff0152612c640152f35b604051636a43f8d160e01b8152600490fd5b60405163d92e233d60e01b8152600490fd5b506001600160a01b038c161562000190565b506001600160a01b0389161562000178565b506001600160a01b0387161562000160565b506001600160a01b0385161562000148565b506001600160a01b0383161562000130565b506001600160a01b0382161562000128565b5f80fd5b634e487b7160e01b5f52604160045260245ffd5b51906001600160a01b0382168203620003c05756fe6080806040526004361015610012575f80fd5b5f905f3560e01c908163010938a1146132a35750806302eb3eb61461327c5780630716326d146131f55780630740805f146131d8578063107a274a14612f9c57806314b1c7a914612f8157806322c787db14612f6657806322cbedff14612f4b578063288ebed914612f305780632a91b4d614612ee75780632fe5294014612ecc57806332f516ed14612e795780633dcd103d14612e355780633e413bee14612df15780633f4ba83a14612d9e57806345a9919114612ccb57806347a17c3b14612cae5780634a4b952414612c935780635050bfc414612c4f57806351ec538214612c0b5780635224caa014612bc257806356d5d4751461145a5780635717f9bd146114155780635b81e111146113ee5780635c975abb146113cb57806364e75ef4146113af5780636b6a3d6f146112f15780636bf41881146112ac57806371c485971461126757806373fa5d6f1461124b57806377aec4e81461122f578063791a778f146111805780637df3fce5146111625780637e301fae146110f757806381741dea14610f665780638277d1f014610f1057806383562af014610ecb5780638456cb5914610e73578063866e8a7814610dd45780638da5cb5b14610dab5780638e566f2414610d3c5780638ff0565014610d0a5780639746d1e114610c4f578063aa71c5cc14610bdc578063aaccf1ec14610bbe578063abebfbcf14610b79578063adb8cbee14610b3d578063bfb37ddc14610b3d578063c555767114610a40578063cae25da214610a24578063cd8870cc14610a08578063d268e8f714610995578063d5438eae14610950578063da0e461f1461090b578063db068e0e14610891578063db49222c14610875578063db81f99b1461074d578063dbc8cf9e146106c2578063de74e57b14610594578063e172536514610578578063e66eefc81461046e578063e8a0664514610452578063e8c42827146103e1578063f2fde38b1461034d5763f7d38221146102e9575f80fd5b3461034a57602036600319011261034a57604060209163ffffffff61030c6132d9565b168152600883522060405161032081613443565b815460ff1615158082526001909201549201829052604080519182526020820192909252f35b0390f35b80fd5b503461034a57602036600319011261034a57610367613332565b600154906001600160a01b0380831691338390036103cf57169182156103bd576001600160a01b03191682176001557f8be0079c531659141344cd1fd0a4f28419497f9722a3daafe3b4186f6b6457e08380a380f35b60405163d92e233d60e01b8152600490fd5b604051635fc483c560e01b8152600490fd5b503461034a57602036600319011261034a576103fb613332565b6001546001600160a01b039190821633036103cf5781169081156103bd5782546001600160a01b0319811683178455167fb2a33fa3b42c667f43e8f01a1ab24a2ba46d7b59994b93044fb7f8519b88e02a8380a380f35b503461034a578060031936011261034a57602060405160028152f35b503461034a57602036600319011261034a576040816101009260e0835161049481613471565b82815282602082015282858201528260608201528260808201528260a08201528260c0820152015260043581526007602052206040516104d381613471565b60018060a01b0360ff8184541693848452826001820154169260208501938452600282015460408601908152600383015490606087019182526004840154926080880193845260058501549660e0600660a08b0197898b1689528960c08d019b60081c1615158b5201549901988952604051998a5251166020890152516040880152516060870152516080860152511660a084015251151560c08301525160e0820152f35b503461034a578060031936011261034a576020604051600e8152f35b503461034a57602036600319011261034a5760043581526009602052604090208054600182015460028301546001600160a01b03908116939116916105db600383016134b0565b916105e8600482016134b0565b6105f4600583016134b0565b6006830154610605600785016134b0565b91610612600886016134b0565b93600986015497600a87015496600b0154976040519b8c9b6101a0928d5260208d015260408c01528060608c01528a0161064b9161330d565b89810360808b015261065c9161330d565b88810360a08a015261066d9161330d565b9060c088015286810360e08801526106849161330d565b8581036101008701526106969161330d565b9263ffffffff811661012086015260201c60ff1615156101408501526101608401526101808301520390f35b503461034a57602080600319360112610749576001600160a01b036106e5613332565b168252600d81526040822091604051809384918482549182815201918452848420935b858282106107335750505061071f9250038361348d565b61034660405192828493845283019061338d565b8554845260019586019588955093019201610708565b5080fd5b503461034a5760208060031936011261074957600154600435916001600160a01b0391821691338390036103cf578315610863576040516370a0823160e01b81523060048201527f0000000000000000000000000000000000000000000000000000000000000000939083816024818689165afa80156108585786918891610823575b50106108115784610802917f2aa7fb97600ea702b454359fc3d02ae9fa48367e7155505d38cee896e5b5aae795614e09565b6001541692604051908152a280f35b60405163bb55fd2760e01b8152600490fd5b809250858092503d8311610851575b61083c818361348d565b8101031261084d578590515f6107d0565b5f80fd5b503d610832565b6040513d89823e3d90fd5b60405163162908e360e11b8152600490fd5b503461034a578060031936011261034a57602060405160078152f35b503461034a57602036600319011261034a57600154600435906001600160a01b031633036103cf5780156108f95760407fc8d1043f24843c0a1c9251fdc30017d84e87498fbcf232af9f86816b5e182bde91600354908060035582519182526020820152a180f35b604051636a43f8d160e01b8152600490fd5b503461034a578060031936011261034a576040517f00000000000000000000000000000000000000000000000000000000000000006001600160a01b03168152602090f35b503461034a578060031936011261034a576040517f00000000000000000000000000000000000000000000000000000000000000006001600160a01b03168152602090f35b503461034a57602080600319360112610749576001600160a01b036109b8613332565b168252600b81526040822091604051809384918482549182815201918452848420935b858282106109f25750505061071f9250038361348d565b85548452600195860195889550930192016109db565b503461034a578060031936011261034a576020604051600d8152f35b503461034a578060031936011261034a57602060405160058152f35b503461034a57602036600319011261034a576004358015610863576040516323b872dd60e01b8352336004523060245260448290527f000000000000000000000000000000000000000000000000000000000000000060208460648180855af16001855114811615610b1e575b826040528460605215610b00575050610ac88160025461360c565b8060025560405191825260208201527fd3ee4cf015800247124eae86adf4280ebe32c8680c1a44a2f0ed16dbcebf049360403392a280f35b635274afe760e01b82526001600160a01b0316600482015260249150fd5b6001811516610b3457813b15153d151616610aad565b823d86823e3d90fd5b503461034a57602036600319011261034a576020906001600160a01b039060409082610b67613332565b168152600e8452205416604051908152f35b503461034a578060031936011261034a576040517f00000000000000000000000000000000000000000000000000000000000000006001600160a01b03168152602090f35b503461034a578060031936011261034a576020600554604051908152f35b503461034a57602080600319360112610749576001600160a01b03610bff613332565b168252600a81526040822091604051809384918482549182815201918452848420935b85828210610c395750505061071f9250038361348d565b8554845260019586019588955093019201610c22565b503461034a57604036600319011261034a576001600160a01b0360243581811680820361084d57826001541633036103cf57156103bd5782917f000000000000000000000000000000000000000000000000000000000000000016803b15610d0657610cda83929183926040519485809481936323b872dd60e01b83526004359030600485016135bc565b03925af18015610cfb57610ceb5750f35b610cf49061345e565b61034a5780f35b6040513d84823e3d90fd5b5050fd5b503461034a57602036600319011261034a576040610d2960043561357e565b8060025410159082519182526020820152f35b503461034a57602036600319011261034a57604060c0916004358152600c6020522080549060018101549060018060a01b03600282015416600382015490600560ff600485015416930154936040519586526020860152604085015260608401521515608083015260a0820152f35b503461034a578060031936011261034a576001546040516001600160a01b039091168152602090f35b503461034a57606036600319011261034a57610dee6132d9565b60243560443580151591828203610e6f576001546001600160a01b031633036103cf576040515f80516020614ed783398151915293610e2c82613443565b8152600163ffffffff602083019684885216958688526008602052610e58604089209351151584613552565b51910155604080519182529115156020820152a280f35b8480fd5b503461034a578060031936011261034a576001546001600160a01b031633036103cf57600160ff196004541617600455337f62e78cea01bee320cd4e420270b5ea74000d11b0c9f74754ebdbfc544b05a2588280a280f35b503461034a578060031936011261034a576040517f00000000000000000000000000000000000000000000000000000000000000006001600160a01b03168152602090f35b503461034a57604036600319011261034a57610f2a613332565b6001600160a01b03168152600a602052604081208054602435929083101561034a576020610f588484613348565b90546040519160031b1c8152f35b503461034a57606036600319011261034a576001600160401b036004358181116110f357610f9890369060040161335d565b9091602435818111610e6f57610fb290369060040161335d565b90916044359081116110ef57610fcc90369060040161335d565b9260019560018060a01b036001541633036103cf578386148015906110e5575b6110d357875b868110610ffd578880f35b808761100b8a9389886135de565b611014906135ee565b83611020848a896135de565b356040519261102e84613443565b151583528d60208085019283528663ffffffff96879161104e918c6135de565b611057906135fb565b1682526008905260409020925115156110709084613552565b5191015561107f828a866135de565b611088906135fb565b906110948389886135de565b35916110a1848b8a6135de565b6110aa906135ee565b6040805194855290151560208501529116915f80516020614ed78339815191529190a201610ff2565b60405163512509d360e11b8152600490fd5b5084861415610fec565b8580fd5b8280fd5b503461034a57602036600319011261034a57807f00000000000000000000000000000000000000000000000000000000000000006001600160a01b0316803b1561115f578160405180926323b872dd60e01b8252818381610cda6004353033600485016135bc565b50fd5b503461034a578060031936011261034a576020600354604051908152f35b503461034a57602036600319011261034a57600154600435906001600160a01b0390811690338290036103cf578215610863576002549083821061081157611219847fc0567b82921a8e2b7ac5ca4be34d2883a8a9d887f4672294dfe098b4bee6c3b9946111f0826040966135af565b6002557f0000000000000000000000000000000000000000000000000000000000000000614e09565b600154169260025482519182526020820152a280f35b503461034a578060031936011261034a57602060405160038152f35b503461034a578060031936011261034a57602060405160088152f35b503461034a578060031936011261034a576040517f00000000000000000000000000000000000000000000000000000000000000006001600160a01b03168152602090f35b503461034a578060031936011261034a576040517f00000000000000000000000000000000000000000000000000000000000000006001600160a01b03168152602090f35b503461034a578060031936011261034a576001546001600160a01b0390811633036103cf5780825416801561139d578291813b15610d06578291604483926040519485938492632f2ff15d60e01b84527f9f2df0fed2c77648de5860a4cc508cd0818c85b8b8a1ab4ceeef8d981c8956a660048501527f00000000000000000000000000000000000000000000000000000000000000001660248401525af18015610cfb57610ceb5750f35b604051638b3b734760e01b8152600490fd5b503461034a578060031936011261034a576020604051600b8152f35b503461034a578060031936011261034a57602060ff600454166040519015158152f35b503461034a57602036600319011261034a57602061140d60043561357e565b604051908152f35b503461034a578060031936011261034a576040517f00000000000000000000000000000000000000000000000000000000000000006001600160a01b03168152602090f35b503461084d57606036600319011261084d576114746132d9565b6001600160401b036044351161084d5736602360443501121561084d576001600160401b03600460443501351161084d573660246044356004013560443501011161084d577f00000000000000000000000000000000000000000000000000000000000000006001600160a01b03163303612bb05760ff60045416612b9e5763ffffffff81165f52600860205260405f206040519061151282613443565b6020600160ff83541615928315855201549201918252612b8c575160243503612b7a576044356004013515612b66576044356004013560011161084d57611561600460443501355f1901613563565b9061156f604051928361348d565b6004604435908101355f19018084529060250160208401375f601f604435600401358401015260016024604435013560f81c145f146115ce57506115ba906115b5614e87565b614926565b60015f80516020614f578339815191525580f35b6044356024013560f81c6002036115f157506115ba906115ec614e87565b614366565b6044356024013560f81c60030361176c575061160b614e87565b6080818051810103126107495760208101519061162a60408201613619565b61163b608060608401519301613619565b50604051633f2891eb60e21b81526001600160a01b0391909116906020818061166986864660048501614310565b0381887f00000000000000000000000000000000000000000000000000000000000000006001600160a01b03165af1859181611730575b506116f1575050505f80516020614f3783398151915260806040516003815260406020820152600660408201526511985a5b195960d21b6060820152a260015f80516020614f578339815191525580f35b6040516001600160a01b039091168152919290917ff4b7f74bbc7b0eeb38480084b9cc35c8d6b5215d2503eef5d436e86488b5e38a90602090a46115ba565b9091506020813d602011611764575b8161174c6020938361348d565b810103126110ef5761175d90613619565b905f6116a0565b3d915061173f565b906044356024013560f81c600403611790576115ba915061178b614e87565b614151565b6044356024013560f81c6005036117b3576115ba91506117ae614e87565b613f1d565b6044356024013560f81c60060361206957805181019061010081830312612065576117e060208201613619565b926117ed60408301613619565b60608301519093906001600160401b0381116120615761181590602080840191860101613693565b60808401519094906001600160401b03811161205d5761183d90602080850191870101613693565b60a08501519095906001600160401b0381116120595761186590602080860191880101613693565b9560c08601519360e087015160018060401b03811161205557611890906020808401918a0101613693565b610100880151909790916001600160401b038311612051576118b9926020809201920101613693565b600554966118c688613ac3565b600555604051926118d6846133f8565b88845260018060a01b038b16602085015260018060a01b038616604085015284606085015260808401528860a08401528560c084015260e083015261010082015263ffffffff85166101208201526001610140820152426101608201528861018082015285895260096020526040892090805182556001820160018060a01b036020830151169060018060a01b03199182825416179055600283019060018060a01b0360408401511690825416179055606081015180519060018060401b038211611d195781906119aa60038601546133c0565b601f8111612001575b50602090601f8311600114611f93578d92611f88575b50508160011b915f199060031b1c19161760038301555b60808101518051906001600160401b038211611d19578190611a0560048601546133c0565b601f8111611f38575b50602090601f8311600114611eca578d92611ebf575b50508160011b915f199060031b1c19161760048301555b60a08101518051906001600160401b038211611d19578190611a6060058601546133c0565b601f8111611e6f575b50602090601f8311600114611e01578d92611df6575b50508160011b915f199060031b1c19161760058301555b60c0810151600683015560e08101518051906001600160401b038211611d19578190611ac560078601546133c0565b601f8111611da6575b50602090601f8311600114611d38578d92611d2d575b50508160011b915f199060031b1c19161760078301555b6101008101518051906001600160401b038211611d1957611b1f60088501546133c0565b601f8111611cd5575b506020908c601f8411600114611c4957611c1b9484611c3898955f80516020614f178339815191529c9b9a9895600b956101809592611c3e575b50508160011b915f199060031b1c19161760088501555b6009840163ffffffff6101208301511681549060ff60201b610140850151151560201b169164ffffffffff191617179055610160810151600a850155015191015560018060a01b0383168b52600a602052611bd78860408d20613ad1565b6001600160a01b038a168b52600b60205260408b20611bf7908990613ad1565b63ffffffff604051968796875216602086015260806040860152608085019061330d565b83810360608501526001600160a01b03918216989091169661330d565b0390a480f35b015190505f80611b62565b5090600885018d5260208d20918d5b601f1985168110611cbd5750611c1b946001855f80516020614f178339815191529c9b9a9895600b9561018095611c389c99601f19811610611ca5575b505050811b016008850155611b79565b01515f1960f88460031b161c191690555f8080611c95565b91926020600181928685015181550194019201611c58565b600885018d5260208d20601f840160051c810160208510611d12575b601f830160051c82018110611d07575050611b28565b5f8155600101611cf1565b5080611cf1565b634e487b7160e01b8c52604160045260248cfd5b015190505f80611ae4565b9250600785018d5260208d20908d935b601f1984168510611d8b576001945083601f19811610611d73575b505050811b016007830155611afb565b01515f1960f88460031b161c191690555f8080611d63565b81810151835560209485019460019093019290910190611d48565b909150600785018d5260208d20601f840160051c810160208510611def575b90849392915b601f830160051c82018110611de1575050611ace565b5f8155859450600101611dcb565b5080611dc5565b015190505f80611a7f565b9250600585018d5260208d20908d935b601f1984168510611e54576001945083601f19811610611e3c575b505050811b016005830155611a96565b01515f1960f88460031b161c191690555f8080611e2c565b81810151835560209485019460019093019290910190611e11565b909150600585018d5260208d20601f840160051c810160208510611eb8575b90849392915b601f830160051c82018110611eaa575050611a69565b5f8155859450600101611e94565b5080611e8e565b015190505f80611a24565b9250600485018d5260208d20908d935b601f1984168510611f1d576001945083601f19811610611f05575b505050811b016004830155611a3b565b01515f1960f88460031b161c191690555f8080611ef5565b81810151835560209485019460019093019290910190611eda565b909150600485018d5260208d20601f840160051c810160208510611f81575b90849392915b601f830160051c82018110611f73575050611a0e565b5f8155859450600101611f5d565b5080611f57565b015190505f806119c9565b9250600385018d5260208d20908d935b601f1984168510611fe6576001945083601f19811610611fce575b505050811b0160038301556119e0565b01515f1960f88460031b161c191690555f8080611fbe565b81810151835560209485019460019093019290910190611fa3565b909150600385018d5260208d20601f840160051c81016020851061204a575b90849392915b601f830160051c8201811061203c5750506119b3565b5f8155859450600101612026565b5080612020565b8b80fd5b8a80fd5b8880fd5b8780fd5b8680fd5b8380fd5b90506044356024013560f81c6007036121295760408180518101031261074957604060208201519101518115801561211d575b61210b57818352600960205260ff600960408520015460201c16156120f95760207f66bcde9f7aec9b81719a4fdec54cbafbf6c834d1f2f989d9cd2134dab8d0c0de9183855260098252806006604087200155604051908152a280f35b6040516366cb03e960e01b8152600490fd5b604051630fc87cc760e31b8152600490fd5b5060055482101561209c565b6044356024013560f81c6008036121a55760208180518101031261084d576020015180158015612199575b61210b57808252600960208190526040832001805460ff60201b191690557fe8a884965a7fb1b7c1efd55ff478bcbd880c4b226a2e2218b83d31c493964ab38280a280f35b50600554811015612154565b6044356024013560f81c6009036121c7576115ba906121c2614e87565b613b2e565b6044356024013560f81c600a03612476576121e0614e87565b805181019060e081602084019303126110f35760208101519161220560408301613619565b60608301516001600160401b0381116110ef5782602061222792860101613693565b60808401519093906001600160401b0381116120615783602061224c92840101613693565b60a08201519093906001600160401b03811161205d5781602061227192850101613693565b60c083015190916001600160401b0382116120595761229a60e09160206122a194870101613693565b93016136d8565b6001600160a01b03938416808952600e60205260408920549095919416612464576123779560209463ffffffff6123286122f59661231861233b976123086040519a8b9860a08e8b015260c08a019061330d565b601f19998a8a83030160408b015261330d565b908888830301606089015261330d565b908686830301608087015261330d565b911660a08301520390810183528261348d565b6040518094819263439b02a560e11b8352857f000000000000000000000000000000000000000000000000000000000000000060048501613b05565b038173__$95de4d3f59146ff04cc92c4190e6cea837$__5af4849281612428575b506123e85750505f80516020614f378339815191526080604051600a815260406020820152600660408201526511985a5b195960d21b6060820152a260015f80516020614f578339815191525580f35b808452600e6020526040842080546001600160a01b0319166001600160a01b03909316928317905590915f80516020614eb78339815191528480a46115ba565b9092506020813d60201161245c575b816124446020938361348d565b81010312610e6f5761245590613619565b915f612398565b3d9150612437565b60405163d7feb16d60e01b8152600490fd5b6044356024013560f81c600b036126735761248f614e87565b60608180518101031261074957602081015160606124af60408401613619565b9201516040516331a9108f60e11b8152600481018390529092906020816024817f00000000000000000000000000000000000000000000000000000000000000006001600160a01b03165afa90811561266857859161262e575b50306001600160a01b039091160361261c577fa7c6225719816dcfce3538e3c2e4b11eabbb9038c55cdc66f2f8216a1639425d60206006549261254b84613ac3565b60065560405161255a81613428565b8481526005886125d48584018981526040850160018060a01b038716815260608601908c8252608087019260018452604060a08901964288528d8152600c8c522097518855516001880155600287019060018060a01b0390511660018060a01b031982541617905551600386015551151560048501613552565b519101556001600160a01b0381168752600d8252604087206125f7908590613ad1565b6040519586526001600160a01b031694a460015f80516020614f578339815191525580f35b6040516318d2a13160e21b8152600490fd5b90506020813d602011612660575b816126496020938361348d565b81010312610e6f5761265a90613619565b5f612509565b3d915061263c565b6040513d87823e3d90fd5b6044356024013560f81c600c036128225761268c614e87565b60808180518101031261084d57602081015190604081015160806126b260608401613619565b9201516001600160a01b039092169181158015612816575b61280457815f52600c60205260405f20600481019060ff825416156127f257600101547f00000000000000000000000000000000000000000000000000000000000000006001600160a01b0316803b1561084d576040516323b872dd60e01b8152915f918391829084908290612745908c30600485016135bc565b03925af190816127df575b506127a257505050505f80516020614f378339815191526080604051600c815260406020820152600660408201526511985a5b195960d21b6060820152a260015f80516020614f578339815191525580f35b805460ff19169055604051908152919250907fd4180af34ae0357fff60a6dac4344902b8ceb64beee79342e881ba33e4a9f15990602090a36115ba565b6127ea91975061345e565b5f955f612750565b604051631eeaee4160e01b8152600490fd5b604051630f5edf0160e01b8152600490fd5b506006548210156126ca565b6044356024013560f81c600d03612844576115ba9061283f614e87565b613734565b600e6024604435013560f81c14612859575080f35b612861614e87565b8051810160c0826020830192031261084d5760208201519161288560408201613619565b60608201519091906001600160401b03811161084d578360206128aa9284010161362d565b60808201519093906001600160401b03811161084d578160206128cf92850101613693565b60a083015190916001600160401b03821161084d576128f860c09160206128ff94870101613693565b9301613619565b6001600160a01b03168015612b35575b6001600160a01b0316801561139d576040949194519261292e84613428565b868452602084019560018060a01b0386168752604085019384526060850152608084015260a0830152604051938491630ba4a29d60e21b8352604060048401526101048301918451604485015260018060a01b039051166064840152519060c060848401528151809152602061012484019201905f5b818110612b1c57505050826129e783926129d2606060409701519160431992838783030160a488015261330d565b906080840151908583030160c486015261330d565b60a0909101516001600160a01b0390811660e48401527f0000000000000000000000000000000000000000000000000000000000000000166024830152038173__$95de4d3f59146ff04cc92c4190e6cea837$__5af490815f935f93612ada575b50612a99575050505f80516020614f378339815191526080604051600e815260406020820152600660408201526511985a5b195960d21b6060820152a260015f80516020614f578339815191525580f35b6040519182526001600160a01b0390811693921691907f10f3b41430e41444dedf20049abb8bbefde17686e93f02ea9051d66da630508890602090a46115ba565b935091506040833d604011612b14575b81612af76040938361348d565b8101031261084d576020612b0a84613619565b930151915f612a48565b3d9150612aea565b82518452879450602093840193909201916001016129a4565b506001600160a01b038381165f908152600e6020526040902054168061290f57505f546001600160a01b031661290f565b634e487b7160e01b5f52603260045260245ffd5b604051635fc2f1c960e11b8152600490fd5b604051630a1824e360e01b8152600490fd5b60405163ab35696f60e01b8152600490fd5b60405163f723c0bb60e01b8152600490fd5b3461084d57604036600319011261084d57612bdb613332565b6001600160a01b03165f908152600d602052604090208054602435919082101561084d57602091610f5891613348565b3461084d575f36600319011261084d576040517f00000000000000000000000000000000000000000000000000000000000000006001600160a01b03168152602090f35b3461084d575f36600319011261084d576040517f00000000000000000000000000000000000000000000000000000000000000006001600160a01b03168152602090f35b3461084d575f36600319011261084d57602060405160098152f35b3461084d575f36600319011261084d576020600654604051908152f35b3461084d57602036600319011261084d575f60a0604051612ceb81613428565b82815282602082015282604082015282606082015282608082015201526004355f52600c60205260c060405f20604051612d2481613428565b81549182825260018101546020830190815260018060a01b0380600284015416604085019081526003840154926060860193845260a0600560ff60048801541696608089019715158852015496019586526040519687525160208701525116604085015251606084015251151560808301525160a0820152f35b3461084d575f36600319011261084d576001546001600160a01b031633036103cf5760ff1960045416600455337f5db9ee0a495bf2e6ff9c91a7834c1ba4fdd244a5e8aa4e537bd38aeae4b073aa5f80a2005b3461084d575f36600319011261084d576040517f00000000000000000000000000000000000000000000000000000000000000006001600160a01b03168152602090f35b3461084d575f36600319011261084d576040517f00000000000000000000000000000000000000000000000000000000000000006001600160a01b03168152602090f35b3461084d57602036600319011261084d5763ffffffff612e976132d9565b165f52600860205260405f20600160ff8254169101549061034660405192839283602090939291936040810194151581520152565b3461084d575f36600319011261084d57602060405160048152f35b3461084d57604036600319011261084d57612f00613332565b6001600160a01b03165f908152600b602052604090208054602435919082101561084d57602091610f5891613348565b3461084d575f36600319011261084d576020604051600a8152f35b3461084d575f36600319011261084d57602060405160068152f35b3461084d575f36600319011261084d57602060405160018152f35b3461084d575f36600319011261084d576020604051600c8152f35b3461084d57602036600319011261084d575f610180604051612fbd816133f8565b82815282602082015282604082015260608082015260606080820152606060a08201528260c0820152606060e0820152606061010082015282610120820152826101408201528261016082015201526004355f52600960205260405f20600b60405191613029836133f8565b8054835260018101546001600160a01b0390811660208501526002820154166040840152613059600382016134b0565b606084015261306a600482016134b0565b608084015261307b600582016134b0565b60a0840152600681015460c0840152613096600782016134b0565b60e08401526130a7600882016134b0565b61010084015260ff600982015463ffffffff811661012086015260201c161515610140840152600a81015461016084015201546101808201526040518091602082528051602083015260018060a01b03602082015116604083015260018060a01b0360408201511660608301526101806131a161313560608401516101a060808701526101c086019061330d565b61318a61316b613157608087015193601f1994858a83030160a08b015261330d565b60a0870151848983030160c08a015261330d565b60c086015160e088015260e0860151838883030161010089015261330d565b90610100850151908683030161012087015261330d565b9163ffffffff6101208201511661014085015261014081015115156101608501526101608101518285015201516101a08301520390f35b3461084d575f36600319011261084d576020600254604051908152f35b3461084d57602036600319011261084d576004355f52600760205261010060405f2060018060a01b039060ff828254169260018301541691600281015460038201546004830154916006600585015494015495604051978852602088015260408701526060860152608085015281811660a085015260081c16151560c083015260e0820152f35b3461084d575f36600319011261084d575f546040516001600160a01b039091168152602090f35b3461084d57602036600319011261084d5760209063ffffffff6132c46132d9565b165f526008825260ff60405f20541615158152f35b6004359063ffffffff8216820361084d57565b5f5b8381106132fd5750505f910152565b81810151838201526020016132ee565b90602091613326815180928185528580860191016132ec565b601f01601f1916010190565b600435906001600160a01b038216820361084d57565b8054821015612b66575f5260205f2001905f90565b9181601f8401121561084d578235916001600160401b03831161084d576020808501948460051b01011161084d57565b9081518082526020808093019301915f5b8281106133ac575050505090565b83518552938101939281019260010161339e565b90600182811c921680156133ee575b60208310146133da57565b634e487b7160e01b5f52602260045260245ffd5b91607f16916133cf565b6101a081019081106001600160401b0382111761341457604052565b634e487b7160e01b5f52604160045260245ffd5b60c081019081106001600160401b0382111761341457604052565b604081019081106001600160401b0382111761341457604052565b6001600160401b03811161341457604052565b61010081019081106001600160401b0382111761341457604052565b601f909101601f19168101906001600160401b0382119082101761341457604052565b9060405191825f82546134c2816133c0565b908184526020946001916001811690815f1461353057506001146134f2575b5050506134f09250038361348d565b565b5f90815285812095935091905b8183106135185750506134f093508201015f80806134e1565b855488840185015294850194879450918301916134ff565b925050506134f094925060ff191682840152151560051b8201015f80806134e1565b9060ff801983541691151516179055565b6001600160401b03811161341457601f01601f191660200190565b6003549081810291818304149015171561359b57620f4240900490565b634e487b7160e01b5f52601160045260245ffd5b9190820391821161359b57565b6001600160a01b03918216815291166020820152604081019190915260600190565b9190811015612b665760051b0190565b35801515810361084d5790565b3563ffffffff8116810361084d5790565b9190820180921161359b57565b51906001600160a01b038216820361084d57565b81601f8201121561084d578051916020916001600160401b038411613414578360051b90604051946136618584018761348d565b8552838086019282010192831161084d578301905b828210613684575050505090565b81518152908301908301613676565b81601f8201121561084d5780516136a981613563565b926136b7604051948561348d565b8184526020828401011161084d576136d591602080850191016132ec565b90565b519063ffffffff8216820361084d57565b9081602091031261084d5751801515810361084d5790565b6001600160a01b039091168152602081019190915260400190565b9061ff00825491151560081b169061ff001916179055565b805160e0826020928101031261084d578082015191604090613757828201613619565b90606081015190608081015161376f60a08301613619565b9161378160e060c083015192016136d8565b60018060a01b0380809716941694895f526007895260ff6005895f20015460081c16613ab2576137b08461357e565b96600254888110613a6f57886137c5916135af565b600255885163095ea7b360e01b81527f000000000000000000000000000000000000000000000000000000000000000095908b81806138088d8b60048401613701565b03815f877f0000000000000000000000000000000000000000000000000000000000000000165af18015613a65578d6138ee8e8c8f8f909763ffffffff9b9a99988f98600698613a38575b50805198899461386286613471565b85528585019081528a828601928d84526060870194855260808701958652600760a0880198600d8a5260e060c08a01995f8b52019b428d525f52525f209a511660018060a01b031990818c5416178b558b60018c019251169082541617905551600289015551600388015551600487015560ff6005870192511660ff198354161782555115159061371c565b51910155808a519663580fbee960e11b88521660048701527f000000000000000000000000000000000000000000000000000000000000000016602486015285604486015260648501528560848501528260a48501521660c4830152868260e48173__$95de4d3f59146ff04cc92c4190e6cea837$__5af45f9281613a09575b506139ba57505050509160066080926139975f80516020614f378339815191529560025461360c565b60025580805193600d85528401528201526511985a5b195960d21b6060820152a2565b9091957fa289cd38453ac3187e687a6d4f4b47d480eca9b511431dc0a2dbf53da5e315239450875f9896949852600781526005845f200161010061ff00198254161790558351928352820152a4565b9092508781813d8311613a31575b613a21818361348d565b8101031261084d5751915f61396e565b503d613a17565b613a5790863d8811613a5e575b613a4f818361348d565b8101906136e9565b505f613853565b503d613a45565b8b513d5f823e3d90fd5b5050505050505050505f80516020614f3783398151915291600d828060809451938385528401528201526c4c6f77206c697175696469747960981b6060820152a2565b875163424e8d7160e01b8152600490fd5b5f19811461359b5760010190565b8054600160401b81101561341457613aee91600182018155613348565b819291549060031b91821b915f19901b1916179055565b6001600160a01b039182168152911660208201526060604082018190526136d59291019061330d565b8051602090820160c08383830192031261084d578183015192604091613b55838301613619565b60608301516001600160401b03929083811161084d578187613b7992870101613693565b90608085015184811161084d578188613b9492880101613693565b9460a081015185811161084d578289613baf92840101613693565b9160c08201519186831161084d57613bc992018901613693565b9460018060a01b038080951696875f52600e8a5289828a5f20541691821580613f13575b613ded575b505081811615613de3575b16928315613dd25784938795613ca65f958d95613c95613c7f8f978f9889519a613c268c613428565b8b528a019c8d52888a0190815260608a0193845260808a0194855260a08a019788528689519d8e9b8c9b631007491d60e11b8d5260048d01525160448c0152511660648a01525160c060848a015261010489019061330d565b91519160431992838983030160a48a015261330d565b9151908683030160c487015261330d565b91511660e4830152847f0000000000000000000000000000000000000000000000000000000000000000166024830152038173__$95de4d3f59146ff04cc92c4190e6cea837$__5af491825f915f955f95613d81575b5050613d3b5750505050505f80516020614f3783398151915291600682806080945193600985528401528201526511985a5b195960d21b6060820152a2565b91613d7c9186979493877f891f0e05762f3639153f6d51cdec1edeaadcaf435c82964d7b3399299f5096e4979a98519687968752860152169683019061338d565b0390a4565b9250945092503d805f863e613d96818661348d565b84019360608186031261084d57613dac81613619565b9488820151928883015190811161084d57613dc7920161362d565b939093925f80613cfc565b8751638b3b734760e01b8152600490fd5b50805f5416613bfd565b8a5163439b02a560e11b8152935090915082908190613e31908b7f000000000000000000000000000000000000000000000000000000000000000060048501613b05565b038173__$95de4d3f59146ff04cc92c4190e6cea837$__5af45f9181613edc575b50613e9d57505050505050505f80516020614f3783398151915291601182806080945193600985528401528201527010dbdb1b1958dd1a5bdb8819985a5b1959607a1b6060820152a2565b5f878152600e8a5288812080546001600160a01b03191683881690811790915586929189908d905f80516020614eb78339815191529080a4895f613bf2565b9091508981813d8311613f0c575b613ef4818361348d565b8101031261084d57613f0590613619565b905f613e52565b503d613eea565b5080511515613bed565b805160c0826020928101031261084d578082015191604090613f40828201613619565b6060820151608083015191613f5c60c060a08601519501613619565b6002546001600160a01b03928316949086811061410f5786613f7d916135af565b600255865163095ea7b360e01b81527f00000000000000000000000000000000000000000000000000000000000000009490898180613fc08b8a60048401613701565b03815f897f0000000000000000000000000000000000000000000000000000000000000000165af18015614105579160a4918b94936140e8575b505f868b519889958694636a5def7f60e01b86528c60048701526024860152604485015260806064850152826084850152165af15f93816140b9575b50614082575050505091600660809261405f5f80516020614f378339815191529560025461360c565b60025580805193600585528401528201526511985a5b195960d21b6060820152a2565b9195509195937fcd911e34a4599232bb0dbba95063b5b1c10a509e6e67301824a6bc96c16bbd6493613d7c91519384931683613701565b9093508781813d83116140e1575b6140d1818361348d565b8101031261084d5751925f614036565b503d6140c7565b6140fe90853d8711613a5e57613a4f818361348d565b505f613ffa565b89513d5f823e3d90fd5b505050505050505f80516020614f3783398151915291600d82806080945193600585528401528201526c4c6f77206c697175696469747960981b6060820152a2565b80516080826020928101031261084d5780820151916040908181015161417e60806128f860608501613619565b83516331a9108f60e11b8152600481018390526001600160a01b0391821693907f00000000000000000000000000000000000000000000000000000000000000008316908781602481855afa908115614306575f916142d1575b50833091160361429157803b1561084d575f865180926323b872dd60e01b825281838161420a8a8c30600485016135bc565b03925af19081614282575b5061425257505050505f80516020614f3783398151915291600682806080945193600485528401528201526511985a5b195960d21b6060820152a2565b7ffe2126fa38426754575b7c6ac37aa9ee8f37975b79854e21bfb4ca24be10e643939694959295519687521694a4565b61428b9061345e565b5f614215565b50505050505f80516020614f3783398151915291600d82806080945193600485528401528201526c4e6f7420696e20657363726f7760981b6060820152a2565b90508781813d83116142ff575b6142e8818361348d565b8101031261084d576142f990613619565b5f6141d8565b503d6142de565b87513d5f823e3d90fd5b9081526001600160a01b039091166020820152604081019190915260600190565b6001600160a01b0391821681525f602082015291166040820152606081019190915260800190565b805115612b665760200190565b805160e0825f928101031261084d5760208201519161438760408201613619565b9060608101519260808201519360a083015160e06143a760c08601613619565b94015193875f52600760205260ff600560405f20015460081c16614914576143ce8761357e565b966002548881106148cd57886143e3916135af565b6002556040516143f281613471565b5f8152600660e0602083019260018060a01b038b1684528760408201528460608201528b6080820152600260a08201525f60c082015242828201528c5f52600760205260405f209360018060a01b0382511660018060a01b0319865416178555600185019060018060a01b0390511660018060a01b03198254161790556040810151600285015560608101516003850155608081015160048501556144b26005850160ff60a08401511660ff1982541617815560c083015115159061371c565b01519101556040519081528760208201525f895f80516020614ef7833981519152604060018060a01b038b1694a460405163095ea7b360e01b81527f00000000000000000000000000000000000000000000000000000000000000006001600160a01b0316907f0000000000000000000000000000000000000000000000000000000000000000906020818061454c8d8660048401613701565b03815f875af180156148c2576148a3575b506001600160a01b0316803b1561084d57885f9161459c93838b6040519687958694859363d2577f3b60e01b855260018060a01b031660048501614331565b03925af19081614890575b506145f8575050505050506145be9060025461360c565b6002555f80516020614f3783398151915260806040516002815260406020820152600660408201526511985a5b195960d21b6060820152a2565b604051633f2891eb60e21b815295979594602092869283926146299290916001600160a01b03169060048501614310565b0381857f00000000000000000000000000000000000000000000000000000000000000006001600160a01b03165af1928315610cfb578293614854575b506040519061467482613443565b60018252602036818401376001600160a01b03871661469283614359565b52604051906146a082613443565b60018252602036818401376146b482614359565b527f00000000000000000000000000000000000000000000000000000000000000006001600160a01b03163b156110f3576040516371f6bea760e01b81526001600160a01b038516600482015260a06024820152825160a48201819052909284928492909160c4840191602090910190855b81811061482f57505050908361474b602093600319938487830301604488015261338d565b6001600160a01b037f0000000000000000000000000000000000000000000000000000000000000000811660648701528582039384016084870152919052910190829084907f0000000000000000000000000000000000000000000000000000000000000000165af18015610cfb5761481b575b5082815260076020908152604091829020600501805461ff00191661010017905590519384526001600160a01b0391821694909116927f930983edb7946aee68cba53c5d92ddae478fc60737eca721b4c963bd759418e79190a4565b614825829161345e565b61034a575f6147bf565b82516001600160a01b0316845288965087955060209384019390920191600101614726565b9092506020813d602011614888575b816148706020938361348d565b810103126107495761488190613619565b915f614666565b3d9150614863565b61489b91955061345e565b5f935f6145a7565b6148bb9060203d602011613a5e57613a4f818361348d565b505f61455d565b6040513d5f823e3d90fd5b5050505050505050505f80516020614f3783398151915260806040516002815260406020820152600d60408201526c4c6f77206c697175696469747960981b6060820152a2565b60405163424e8d7160e01b8152600490fd5b805190602060c0825f948101031261084d57808201519160409061494b828201613619565b606082015191608081015160c061496460a08401613619565b9201519060018060a01b0380809516931692885f526007885260ff6005885f20015460081c16614df8576149978261357e565b946002968754878110614db157868c5f80516020614ef78339815191528c8e8760068f8f85858f928f9c938b958f8f8f6149d486614a6e9a6135af565b84558751906149e282613471565b815286810191825287810192835260608101948552608081019586528b60a082019860018a52600760c08401995f8b5260e085019d8e4290525f52525f209c8d92511660018060a01b031980935416178d5560018d0192511690825416179055519089015551600388015551600487015560ff6005870192511660ff198354161782555115159061371c565b519101558c8251918b8352820152a4817f0000000000000000000000000000000000000000000000000000000000000000167f00000000000000000000000000000000000000000000000000000000000000008a5163095ea7b360e01b81528c8180614ade8d8660048401613701565b03815f875af18015614da7578592918e91614d89575b505016803b1561084d57885f91614b2293838e5180968195829463d2577f3b60e01b84528c60048501614331565b03925af19081614d76575b50614b85575050505050505f80516020614f378339815191529495509181614b5b60809594600e945461360c565b905580805193600185528401528201526d149bde585b1d1e4819985a5b195960921b6060820152a2565b8b93929160e48b928b519e8f938492630672a3bf60e01b8452876004850152817f00000000000000000000000000000000000000000000000000000000000000001660248501526044840152600160648401528a608484015260c060a48401528160c48401527f0000000000000000000000000000000000000000000000000000000000000000165af1809b849c614d47575b50614c6c5750505050505f80516020614f378339815191529495509181614c4560809594600b945461360c565b905580805193600185528401528201526a135a5b9d0819985a5b195960aa1b6060820152a2565b92989197967f52829f2e024b16b6f8c1dc24b5f951ef8041a26ed5ccf186224c41054dd5c13e919650849a8196848b5260078a526005838c200161010061ff0019825416179055825191825289820152a484151580614d3c575b80614d23575b614cd9575b505050505050565b600b8185877f317bdf9f9561852763539789b70fb5960ea25d2ed8f063dc89686b583a96b5349752600986522001614d118154613ac3565b905551908152a35f8080808080614cd1565b508484526009835260ff60098286200154841c16614ccc565b506005548510614cc6565b909b508981813d8311614d6f575b614d5f818361348d565b8101031261084d57519a5f614c18565b503d614d55565b614d81919d5061345e565b5f9b5f614b2d565b81614d9f92903d10613a5e57613a4f818361348d565b508c5f614af4565b8c513d5f823e3d90fd5b5050505050505050505f80516020614f3783398151915292935090600d82806080945193600185528401528201526c4c6f77206c697175696469747960981b6060820152a2565b865163424e8d7160e01b8152600490fd5b60405163a9059cbb60e01b5f9081526001600160a01b039384166004526024949094529260209060448180855af160015f5114811615614e68575b8360405215614e5257505050565b635274afe760e01b835216600482015260249150fd5b6001811516614e7e57813b15153d151616614e44565b833d5f823e3d90fd5b5f80516020614f578339815191526002815414614ea45760029055565b604051633ee5aeb560e01b8152600490fdfe79c5ad526ef1a36cea4a970a607e21557825633ad5b195eada9ff1ff98abf925866fe008bf10ea56db7a30dbd9bcb3d271055798bb40e33aa6c8e4946201fe0102f3d9206e8324bff80077e5b30cb225397f8f786dab7c68cc4e58491eaac44f5c5498b784bea8e8b1505446ac68e9ba9bce9878bf59a811dc71ffe60b034eadbdf690c02a711076e0ededb10575adbb9cb85e74153417ce9123134943c9068a9b779b17422d0df92223018b32b4d1fa46e071723d6817e2486d003becc55f00a264697066735822122023e523e50f04376278dd74f4990496d88e97ec58d91cb8500d6e87393210405964736f6c63430008180033","linkReferences":{"src/libraries/IPayLib.sol":{"IPayLib":[{"start":10089,"length":20},{"start":11798,"length":20},{"start":15679,"length":20},{"start":16584,"length":20},{"start":16931,"length":20}]}}},"methodIdentifiers":{"OP_CREATE_COLLECTION()":"288ebed9","OP_CREATE_DERIVATIVE()":"e8a06645","OP_CREATE_DERIVATIVE_WITH_LICENSE()":"e1725365","OP_CREATE_LISTING()":"22cbedff","OP_DEACTIVATE_LISTING()":"73fa5d6f","OP_LIST_LICENSE_TOKEN()":"64e75ef4","OP_MINT_AND_REGISTER_IP()":"4a4b9524","OP_MINT_LICENSE()":"22c787db","OP_MINT_LICENSE_WITH_FEE()":"cd8870cc","OP_PURCHASE_LICENSE_LISTING()":"14b1c7a9","OP_RAISE_DISPUTE()":"cae25da2","OP_REGISTER_IP()":"77aec4e8","OP_TRANSFER_LICENSE()":"2fe52940","OP_UPDATE_LISTING()":"db49222c","calculateWIPAmount(uint256)":"5b81e111","checkLiquidity(uint256)":"8ff05650","creatorCollections(address)":"bfb37ddc","depositLicenseToEscrow(uint256)":"7e301fae","depositWIP(uint256)":"c5557671","derivativeWorkflows()":"5050bfc4","disputeModule()":"83562af0","getCreatorCollection(address)":"adb8cbee","getDomainConfig(uint32)":"f7d38221","getLicenseListing(uint256)":"45a99191","getLicenseListingsBySeller(address)":"dbc8cf9e","getListing(uint256)":"107a274a","getListingsByCreator(address)":"aa71c5cc","getListingsByIPId(address)":"d268e8f7","getPayment(bytes32)":"e66eefc8","grantMinterRoleToWorkflows()":"6b6a3d6f","handle(uint32,bytes32,bytes)":"56d5d475","ipAssetRegistry()":"3dcd103d","isDomainTrusted(uint32)":"010938a1","licenseListings(uint256)":"8e566f24","licenseListingsBySeller(address,uint256)":"5224caa0","licenseToken()":"51ec5382","licensingModule()":"6bf41881","listings(uint256)":"de74e57b","listingsByCreator(address,uint256)":"8277d1f0","listingsByIPId(address,uint256)":"2a91b4d6","mailbox()":"d5438eae","nextLicenseListingId()":"47a17c3b","nextListingId()":"aaccf1ec","owner()":"8da5cb5b","pause()":"8456cb59","paused()":"5c975abb","payments(bytes32)":"0716326d","pilTemplate()":"abebfbcf","registrationWorkflows()":"71c48597","royaltyModule()":"5717f9bd","setExchangeRate(uint256)":"db068e0e","setSpgNftContract(address)":"e8c42827","setTrustedDomain(uint32,bytes32,bool)":"866e8a78","setTrustedDomainsBatch(uint32[],bytes32[],bool[])":"81741dea","spgNftContract()":"02eb3eb6","transferOwnership(address)":"f2fde38b","trustedDomains(uint32)":"32f516ed","unpause()":"3f4ba83a","usdc()":"3e413bee","usdcToWipRate()":"7df3fce5","wip()":"da0e461f","wipLiquidity()":"0740805f","withdrawLicenseFromEscrow(uint256,address)":"9746d1e1","withdrawUSDC(uint256)":"db81f99b","withdrawWIP(uint256)":"791a778f"},"id":34}